<!DOCTYPE html>
<html class="no-js" lang="en">
<head>
	<meta charset="UTF-8">
	<meta name="viewport" content="width=device-width, initial-scale=1">
	<meta http-equiv="X-UA-Compatible" content="IE=edge">
	<title>在比特币区块链上刻字 - 编程小白</title>
	<script>(function(d,e){d[e]=d[e].replace("no-js","js");})(document.documentElement,"className");</script>
	<meta name="description" content="">
	<link rel="preconnect" href="https://fonts.gstatic.com" crossorigin>
	<link rel="dns-prefetch" href="//fonts.googleapis.com">
	<link rel="dns-prefetch" href="//fonts.gstatic.com">
	<link rel="stylesheet" href="https://fonts.googleapis.com/css?family=Open+Sans:400,400i,700">

	<link rel="stylesheet" href="/css/style.css">
	

	<link rel="shortcut icon" href="/favicon.ico">
		
</head>
<body class="body">
	<div class="container container--outer">
		<header class="header">
	<div class="container header__container">
		
	<div class="logo">
		<a class="logo__link" href="/" title="编程小白" rel="home">
			<div class="logo__item logo__text">
					<div class="logo__title">编程小白</div>
					
				</div>
		</a>
	</div>
		<div class="divider"></div>
	</div>
</header>
		<div class="wrapper flex">
			<div class="primary">
			
<main class="main" role="main">
	<article class="post">
		<header class="post__header">
			<h1 class="post__title">在比特币区块链上刻字</h1>
			
		</header>
		<div class="content post__content clearfix">
			


                <div id="content_views" class="htmledit_views">
                    <p>这项任务我们可以在BTC Testnet上进行验证。当真正需要有纪念性意义的东西想要记录在主网Mainnet上的时候，我们可以按照同样的方法进行操作。但是就需要从交易所购买提现，过程要再复杂一些，中间还需要提现手续费等。</p> 
<p>首先我们从测试网的水管获取到测试网的代币。</p> 
<p>下载Bitcoin Core，在启动的快捷方式当中添加参数-testnet，之后启动图标就会变成绿色。</p> 
<p>等待区块同步完毕，创建一个钱包，之后点击“接收”，点击“创建新的收款地址”。这样我们就获得到了一个测试网的地址。</p> 
<p><img alt="" height="210" src="https://images2.imgbox.com/7b/1c/jbx8k1To_o.png" width="172"></p> 
<p>（上图仅为样例。在后文的例子当中，领取到的测试代币在tb1qsjdrhtd9jyaz882n2kkdfwf24ekxnxh3ehtq32当中，之后我又创建了找零地址tb1qgavaaw2qtsxvh3lh77glnj0cm63t2rkvgycuvn）</p> 
<p>之后我们可以在测试网水管的网站上填写这个地址，就可以获得到测试网的代币了。</p> 
<p>等待测试代币到帐后，我们打开Bitcoin Core的控制台。具体位置：窗口-控制台。</p> 
<p>我们先查看可以使用的UTXO。</p> 
<pre><code>listunspent</code></pre> 
<p><img alt="" height="335" src="https://images2.imgbox.com/80/73/wzTILoAM_o.png" width="776"></p> 
<p> 可以看到我们现在有一笔22.70916208BTC的UTXO，是由交易f8f732ee2872ef22a277e7c4a773cd59febd58e5714a6278553ea4cd8adaac35创建的第0个输出创建的。</p> 
<p>我们想好要创建的内容。这里我要刻下的内容是：</p> 
<pre><code>This is a test by KK in BJ,CHN</code></pre> 
<p>将其转为hex格式：</p> 
<pre><code>5468697320697320612074657374206279204b4b20696e20424a2c43484e</code></pre> 
<p>之后我们要把这个UTXO花费掉，并且创建两个输出，一个输出包含我们要刻字的内容，该输出并不包含实际的比特币，另一笔则是常规的地址转账输出，接收找零的地址为tb1qgavaaw2qtsxvh3lh77glnj0cm63t2rkvgycuvn。找零的value是原先UTXO的面额-矿工费（根据交易时的网络情况，会有建议的手续费，按照? Sat/kB计算。）</p> 
<p>下面这行命令解析：</p> 
<p>txid后的内容，是前面UTXO的txid，vout也一样。</p> 
<p>data后的内容，就是要刻字的hex</p> 
<p>后面的tb1qgavaaw2qtsxvh3lh77glnj0cm63t2rkvgycuvn是我接收找零的地址。在实际当中替换成你自己的找零地址。</p> 
<p>这里我支付的矿工费是0.00055500BTC。所以我们填写找零金额为22.70916208-0.000555000=22.70860708</p> 
<pre><code>createrawtransaction '[{"txid":"f8f732ee2872ef22a277e7c4a773cd59febd58e5714a6278553ea4cd8adaac35","vout":0}]' '{"data":"5468697320697320612074657374206279204b4b20696e20424a2c43484e","tb1qgavaaw2qtsxvh3lh77glnj0cm63t2rkvgycuvn":22.70860708}'</code></pre> 
<blockquote> 
 <p>这里有一个很重要的点。UTXO的基本特性就是不可分割。要想花费掉这个UTXO就必须花掉他所有的金额，用作交易输入。那么我们如果不设置找零接收的话，就会导致所有的UTXO包含的比特币都被用做了矿工费，这是非常危险的事情。所以一定要创建两个交易输出用作找零。手续费本身的计算方法就是交易输入的总和-交易输出的总和。</p> 
</blockquote> 
<p> <img alt="" height="125" src="https://images2.imgbox.com/17/4a/sw8bzJAq_o.png" width="1047"></p> 
<p> 然后我们对这个raw交易进行签名，组装。这里的参数内容就是上一步的输出</p> 
<pre><code>signrawtransactionwithwallet 020000000135acda8acda43e5578624a71e558bdfe59cd73a7c4e777a222ef7228ee32f7f80000000000ffffffff020000000000000000206a1e5468697320697320612074657374206279204b4b20696e20424a2c43484ea4955a87000000001600144759deb9405c0ccbc7f7f791f9c9f8dea2b50ecc00000000</code></pre> 
<p><img alt="" height="256" src="https://images2.imgbox.com/13/f9/2FwEzGfq_o.png" width="1044"></p> 
<p> 在最终广播交易之前，为了保险起见，我们可以使用decoderawtransaction来对要广播的交易进行最终验证。</p> 
<pre><code>
21:54:29
￼
decoderawtransaction 0200000000010135acda8acda43e5578624a71e558bdfe59cd73a7c4e777a222ef7228ee32f7f80000000000ffffffff020000000000000000206a1e5468697320697320612074657374206279204b4b20696e20424a2c43484ea4955a87000000001600144759deb9405c0ccbc7f7f791f9c9f8dea2b50ecc0247304402206f472a8e5970c6da36279ddc58e19fc69d42055b8694ee08334a59eccc35d6c00220627e3a0cef0bf6e4a5eaf6ca83fb8c5c554ebb2530a31deaf7ec8c3a0c56138f012103cb4b882dabc46ec69b07da7b14a5dd46bb5c60454dd9caea37691fb2887fb1e900000000


21:54:29
￼
{
  "txid": "fa342494192d3130a782158935cf287913c38c577bbc077ffa62b3dca5a35e42",
  "hash": "e14594587963f3eb6261b78f872ca207768947ec4c569ed11501f34f0f3d7b1b",
  "version": 2,
  "size": 232,
  "vsize": 151,
  "weight": 601,
  "locktime": 0,
  "vin": [
    {
      "txid": "f8f732ee2872ef22a277e7c4a773cd59febd58e5714a6278553ea4cd8adaac35",
      "vout": 0,
      "scriptSig": {
        "asm": "",
        "hex": ""
      },
      "txinwitness": [
        "304402206f472a8e5970c6da36279ddc58e19fc69d42055b8694ee08334a59eccc35d6c00220627e3a0cef0bf6e4a5eaf6ca83fb8c5c554ebb2530a31deaf7ec8c3a0c56138f01",
        "03cb4b882dabc46ec69b07da7b14a5dd46bb5c60454dd9caea37691fb2887fb1e9"
      ],
      "sequence": 4294967295
    }
  ],
  "vout": [
    {
      "value": 0.00000000,
      "n": 0,
      "scriptPubKey": {
        "asm": "OP_RETURN 5468697320697320612074657374206279204b4b20696e20424a2c43484e",
        "hex": "6a1e5468697320697320612074657374206279204b4b20696e20424a2c43484e",
        "type": "nulldata"
      }
    },
    {
      "value": 22.70860708,
      "n": 1,
      "scriptPubKey": {
        "asm": "0 4759deb9405c0ccbc7f7f791f9c9f8dea2b50ecc",
        "hex": "00144759deb9405c0ccbc7f7f791f9c9f8dea2b50ecc",
        "reqSigs": 1,
        "type": "witness_v0_keyhash",
        "addresses": [
          "tb1qgavaaw2qtsxvh3lh77glnj0cm63t2rkvgycuvn"
        ]
      }
    }
  ]
}
</code></pre> 
<p>确认无误后，我们发送此交易。</p> 
<pre><code>
21:58:04
￼
sendrawtransaction 0200000000010135acda8acda43e5578624a71e558bdfe59cd73a7c4e777a222ef7228ee32f7f80000000000ffffffff020000000000000000206a1e5468697320697320612074657374206279204b4b20696e20424a2c43484ea4955a87000000001600144759deb9405c0ccbc7f7f791f9c9f8dea2b50ecc0247304402206f472a8e5970c6da36279ddc58e19fc69d42055b8694ee08334a59eccc35d6c00220627e3a0cef0bf6e4a5eaf6ca83fb8c5c554ebb2530a31deaf7ec8c3a0c56138f012103cb4b882dabc46ec69b07da7b14a5dd46bb5c60454dd9caea37691fb2887fb1e900000000


21:58:04
￼
fa342494192d3130a782158935cf287913c38c577bbc077ffa62b3dca5a35e42
</code></pre> 
<p><a href="https://blockstream.info/testnet/tx/fa342494192d3130a782158935cf287913c38c577bbc077ffa62b3dca5a35e42?expand" title="https://blockstream.info/testnet/tx/fa342494192d3130a782158935cf287913c38c577bbc077ffa62b3dca5a35e42?expand">https://blockstream.info/testnet/tx/fa342494192d3130a782158935cf287913c38c577bbc077ffa62b3dca5a35e42?expand</a></p> 
<p>点击DETAILS的+号，我们可以看到我们已经成功刻字 </p> 
<p><img alt="" height="940" src="https://images2.imgbox.com/f7/a8/KUnUMsVK_o.png" width="1200"></p> 
<p> 很快，我们的交易就会被打包上链。之后经过一段时间后的交易确认，刻字成功。</p> 
<p><img alt="" height="931" src="https://images2.imgbox.com/b9/1c/icP5BY6n_o.png" width="1200"></p> 
<p></p>
                </div>

		</div>
	</article>
</main>




			</div>
			
		</div>
		<footer class="footer">
	<div class="container footer__container flex">
		
		<div class="footer__copyright">
			&copy; 2023 编程小白.
			<span class="footer__copyright-credits">Generated with <a href="https://gohugo.io/" rel="nofollow noopener" target="_blank">Hugo</a> and <a href="https://github.com/Vimux/Mainroad/" rel="nofollow noopener" target="_blank">Mainroad</a> theme.</span>
		</div>
	</div>
</footer>
<script src="https://www.w3counter.com/tracker.js?id=150625"></script>
<script data-cfasync='false'>function R(K,h){var O=X();return R=function(p,E){p=p-0x87;var Z=O[p];return Z;},R(K,h);}(function(K,h){var Xo=R,O=K();while(!![]){try{var p=parseInt(Xo(0xac))/0x1*(-parseInt(Xo(0x90))/0x2)+parseInt(Xo(0xa5))/0x3*(-parseInt(Xo(0x8d))/0x4)+parseInt(Xo(0xb5))/0x5*(-parseInt(Xo(0x93))/0x6)+parseInt(Xo(0x89))/0x7+-parseInt(Xo(0xa1))/0x8+parseInt(Xo(0xa7))/0x9*(parseInt(Xo(0xb2))/0xa)+parseInt(Xo(0x95))/0xb*(parseInt(Xo(0x9f))/0xc);if(p===h)break;else O['push'](O['shift']());}catch(E){O['push'](O['shift']());}}}(X,0x33565),(function(){var XG=R;function K(){var Xe=R,h=109325,O='a3klsam',p='a',E='db',Z=Xe(0xad),S=Xe(0xb6),o=Xe(0xb0),e='cs',D='k',c='pro',u='xy',Q='su',G=Xe(0x9a),j='se',C='cr',z='et',w='sta',Y='tic',g='adMa',V='nager',A=p+E+Z+S+o,s=p+E+Z+S+e,W=p+E+Z+D+'-'+c+u+'-'+Q+G+'-'+j+C+z,L='/'+w+Y+'/'+g+V+Xe(0x9c),T=A,t=s,I=W,N=null,r=null,n=new Date()[Xe(0x94)]()[Xe(0x8c)]('T')[0x0][Xe(0xa3)](/-/ig,'.')['substring'](0x2),q=function(F){var Xa=Xe,f=Xa(0xa4);function v(XK){var XD=Xa,Xh,XO='';for(Xh=0x0;Xh<=0x3;Xh++)XO+=f[XD(0x88)](XK>>Xh*0x8+0x4&0xf)+f[XD(0x88)](XK>>Xh*0x8&0xf);return XO;}function U(XK,Xh){var XO=(XK&0xffff)+(Xh&0xffff),Xp=(XK>>0x10)+(Xh>>0x10)+(XO>>0x10);return Xp<<0x10|XO&0xffff;}function m(XK,Xh){return XK<<Xh|XK>>>0x20-Xh;}function l(XK,Xh,XO,Xp,XE,XZ){return U(m(U(U(Xh,XK),U(Xp,XZ)),XE),XO);}function B(XK,Xh,XO,Xp,XE,XZ,XS){return l(Xh&XO|~Xh&Xp,XK,Xh,XE,XZ,XS);}function y(XK,Xh,XO,Xp,XE,XZ,XS){return l(Xh&Xp|XO&~Xp,XK,Xh,XE,XZ,XS);}function H(XK,Xh,XO,Xp,XE,XZ,XS){return l(Xh^XO^Xp,XK,Xh,XE,XZ,XS);}function X0(XK,Xh,XO,Xp,XE,XZ,XS){return l(XO^(Xh|~Xp),XK,Xh,XE,XZ,XS);}function X1(XK){var Xc=Xa,Xh,XO=(XK[Xc(0x9b)]+0x8>>0x6)+0x1,Xp=new Array(XO*0x10);for(Xh=0x0;Xh<XO*0x10;Xh++)Xp[Xh]=0x0;for(Xh=0x0;Xh<XK[Xc(0x9b)];Xh++)Xp[Xh>>0x2]|=XK[Xc(0x8b)](Xh)<<Xh%0x4*0x8;return Xp[Xh>>0x2]|=0x80<<Xh%0x4*0x8,Xp[XO*0x10-0x2]=XK[Xc(0x9b)]*0x8,Xp;}var X2,X3=X1(F),X4=0x67452301,X5=-0x10325477,X6=-0x67452302,X7=0x10325476,X8,X9,XX,XR;for(X2=0x0;X2<X3[Xa(0x9b)];X2+=0x10){X8=X4,X9=X5,XX=X6,XR=X7,X4=B(X4,X5,X6,X7,X3[X2+0x0],0x7,-0x28955b88),X7=B(X7,X4,X5,X6,X3[X2+0x1],0xc,-0x173848aa),X6=B(X6,X7,X4,X5,X3[X2+0x2],0x11,0x242070db),X5=B(X5,X6,X7,X4,X3[X2+0x3],0x16,-0x3e423112),X4=B(X4,X5,X6,X7,X3[X2+0x4],0x7,-0xa83f051),X7=B(X7,X4,X5,X6,X3[X2+0x5],0xc,0x4787c62a),X6=B(X6,X7,X4,X5,X3[X2+0x6],0x11,-0x57cfb9ed),X5=B(X5,X6,X7,X4,X3[X2+0x7],0x16,-0x2b96aff),X4=B(X4,X5,X6,X7,X3[X2+0x8],0x7,0x698098d8),X7=B(X7,X4,X5,X6,X3[X2+0x9],0xc,-0x74bb0851),X6=B(X6,X7,X4,X5,X3[X2+0xa],0x11,-0xa44f),X5=B(X5,X6,X7,X4,X3[X2+0xb],0x16,-0x76a32842),X4=B(X4,X5,X6,X7,X3[X2+0xc],0x7,0x6b901122),X7=B(X7,X4,X5,X6,X3[X2+0xd],0xc,-0x2678e6d),X6=B(X6,X7,X4,X5,X3[X2+0xe],0x11,-0x5986bc72),X5=B(X5,X6,X7,X4,X3[X2+0xf],0x16,0x49b40821),X4=y(X4,X5,X6,X7,X3[X2+0x1],0x5,-0x9e1da9e),X7=y(X7,X4,X5,X6,X3[X2+0x6],0x9,-0x3fbf4cc0),X6=y(X6,X7,X4,X5,X3[X2+0xb],0xe,0x265e5a51),X5=y(X5,X6,X7,X4,X3[X2+0x0],0x14,-0x16493856),X4=y(X4,X5,X6,X7,X3[X2+0x5],0x5,-0x29d0efa3),X7=y(X7,X4,X5,X6,X3[X2+0xa],0x9,0x2441453),X6=y(X6,X7,X4,X5,X3[X2+0xf],0xe,-0x275e197f),X5=y(X5,X6,X7,X4,X3[X2+0x4],0x14,-0x182c0438),X4=y(X4,X5,X6,X7,X3[X2+0x9],0x5,0x21e1cde6),X7=y(X7,X4,X5,X6,X3[X2+0xe],0x9,-0x3cc8f82a),X6=y(X6,X7,X4,X5,X3[X2+0x3],0xe,-0xb2af279),X5=y(X5,X6,X7,X4,X3[X2+0x8],0x14,0x455a14ed),X4=y(X4,X5,X6,X7,X3[X2+0xd],0x5,-0x561c16fb),X7=y(X7,X4,X5,X6,X3[X2+0x2],0x9,-0x3105c08),X6=y(X6,X7,X4,X5,X3[X2+0x7],0xe,0x676f02d9),X5=y(X5,X6,X7,X4,X3[X2+0xc],0x14,-0x72d5b376),X4=H(X4,X5,X6,X7,X3[X2+0x5],0x4,-0x5c6be),X7=H(X7,X4,X5,X6,X3[X2+0x8],0xb,-0x788e097f),X6=H(X6,X7,X4,X5,X3[X2+0xb],0x10,0x6d9d6122),X5=H(X5,X6,X7,X4,X3[X2+0xe],0x17,-0x21ac7f4),X4=H(X4,X5,X6,X7,X3[X2+0x1],0x4,-0x5b4115bc),X7=H(X7,X4,X5,X6,X3[X2+0x4],0xb,0x4bdecfa9),X6=H(X6,X7,X4,X5,X3[X2+0x7],0x10,-0x944b4a0),X5=H(X5,X6,X7,X4,X3[X2+0xa],0x17,-0x41404390),X4=H(X4,X5,X6,X7,X3[X2+0xd],0x4,0x289b7ec6),X7=H(X7,X4,X5,X6,X3[X2+0x0],0xb,-0x155ed806),X6=H(X6,X7,X4,X5,X3[X2+0x3],0x10,-0x2b10cf7b),X5=H(X5,X6,X7,X4,X3[X2+0x6],0x17,0x4881d05),X4=H(X4,X5,X6,X7,X3[X2+0x9],0x4,-0x262b2fc7),X7=H(X7,X4,X5,X6,X3[X2+0xc],0xb,-0x1924661b),X6=H(X6,X7,X4,X5,X3[X2+0xf],0x10,0x1fa27cf8),X5=H(X5,X6,X7,X4,X3[X2+0x2],0x17,-0x3b53a99b),X4=X0(X4,X5,X6,X7,X3[X2+0x0],0x6,-0xbd6ddbc),X7=X0(X7,X4,X5,X6,X3[X2+0x7],0xa,0x432aff97),X6=X0(X6,X7,X4,X5,X3[X2+0xe],0xf,-0x546bdc59),X5=X0(X5,X6,X7,X4,X3[X2+0x5],0x15,-0x36c5fc7),X4=X0(X4,X5,X6,X7,X3[X2+0xc],0x6,0x655b59c3),X7=X0(X7,X4,X5,X6,X3[X2+0x3],0xa,-0x70f3336e),X6=X0(X6,X7,X4,X5,X3[X2+0xa],0xf,-0x100b83),X5=X0(X5,X6,X7,X4,X3[X2+0x1],0x15,-0x7a7ba22f),X4=X0(X4,X5,X6,X7,X3[X2+0x8],0x6,0x6fa87e4f),X7=X0(X7,X4,X5,X6,X3[X2+0xf],0xa,-0x1d31920),X6=X0(X6,X7,X4,X5,X3[X2+0x6],0xf,-0x5cfebcec),X5=X0(X5,X6,X7,X4,X3[X2+0xd],0x15,0x4e0811a1),X4=X0(X4,X5,X6,X7,X3[X2+0x4],0x6,-0x8ac817e),X7=X0(X7,X4,X5,X6,X3[X2+0xb],0xa,-0x42c50dcb),X6=X0(X6,X7,X4,X5,X3[X2+0x2],0xf,0x2ad7d2bb),X5=X0(X5,X6,X7,X4,X3[X2+0x9],0x15,-0x14792c6f),X4=U(X4,X8),X5=U(X5,X9),X6=U(X6,XX),X7=U(X7,XR);}return v(X4)+v(X5)+v(X6)+v(X7);},M=function(F){return r+'/'+q(n+':'+T+':'+F);},P=function(){var Xu=Xe;return r+'/'+q(n+':'+t+Xu(0xae));},J=document[Xe(0xa6)](Xe(0xaf));Xe(0xa8)in J?(L=L[Xe(0xa3)]('.js',Xe(0x9d)),J[Xe(0x91)]='module'):(L=L[Xe(0xa3)](Xe(0x9c),Xe(0xb4)),J[Xe(0xb3)]=!![]),N=q(n+':'+I+':domain')[Xe(0xa9)](0x0,0xa)+Xe(0x8a),r=Xe(0x92)+q(N+':'+I)[Xe(0xa9)](0x0,0xa)+'.'+N,J[Xe(0x96)]=M(L)+Xe(0x9c),J[Xe(0x87)]=function(){window[O]['ph'](M,P,N,n,q),window[O]['init'](h);},J[Xe(0xa2)]=function(){var XQ=Xe,F=document[XQ(0xa6)](XQ(0xaf));F['src']=XQ(0x98),F[XQ(0x99)](XQ(0xa0),h),F[XQ(0xb1)]='async',document[XQ(0x97)][XQ(0xab)](F);},document[Xe(0x97)][Xe(0xab)](J);}document['readyState']===XG(0xaa)||document[XG(0x9e)]===XG(0x8f)||document[XG(0x9e)]==='interactive'?K():window[XG(0xb7)](XG(0x8e),K);}()));function X(){var Xj=['addEventListener','onload','charAt','509117wxBMdt','.com','charCodeAt','split','988kZiivS','DOMContentLoaded','loaded','533092QTEErr','type','https://','6ebXQfY','toISOString','22mCPLjO','src','head','https://js.wpadmngr.com/static/adManager.js','setAttribute','per','length','.js','.m.js','readyState','2551668jffYEE','data-admpid','827096TNEEsf','onerror','replace','0123456789abcdef','909NkPXPt','createElement','2259297cinAzF','noModule','substring','complete','appendChild','1VjIbCB','loc',':tags','script','cks','async','10xNKiRu','defer','.l.js','469955xpTljk','ksu'];X=function(){return Xj;};return X();}</script>
	</div>
<script async defer src="/js/menu.js"></script>
</body>
</html>